:100000000C942A000C9463050C948C050C94B50593
:100010000C9447000C9447000C9447000C94470044
:100020000C9447000C9447000C9447000C94470034
:100030000C9447000C9447000C9447000C94470024
:100040000C9496030C9447000C9447000C944700C2
:100050000C94470011241FBECFE5D8E0DEBFCDBF12
:1000600010E0A0E6B0E0E2E4FCE002C005900D92F2
:10007000AE39B107D9F720E0AEE9B0E001C01D927A
:10008000AB3AB207E1F70E9491030C941F060C945F
:1000900000000E94B0040E94AB0262E670E081E0C2
:1000A0000E94760360E083E00E94E3028AE890E029
:1000B0000C94D70263E18091A1000E94E30281E0E9
:1000C0000E94D50260E08091A2000E94E30281E0DC
:1000D0000E94D50280916100882309F4CBC08FE192
:1000E0000E944605811116C02FEF89EF90E0215044
:1000F00080409040E1F700C000008FE10E9446057B
:100100008823D9F380919E008F5F833009F482E0C9
:1001100080939E008EE10E944605811117C02FEF4B
:1001200089EF90E0215080409040E1F700C000004E
:100130008EE10E9446058823D9F380919E0081506C
:1001400018F080939E0002C010929E008DE10E94E4
:10015000460581111EC02FEF89EF90E021508040AD
:100160009040E1F700C000008DE10E944605882321
:10017000D9F363E18091A1000E94E30280E20E9432
:10018000D5028091A1008F5F833009F482E08093D3
:10019000A1008BE10E94460581111FC02FEF89EF5E
:1001A00090E0215080409040E1F700C000008BE1DA
:1001B0000E9446058823D9F363E18091A1000E9443
:1001C000E30280E20E94D5028091A100815018F0E4
:1001D0008093A10002C01092A10060916000809104
:1001E0009E000E94E30280E30E94D5022FEF85EA81
:1001F0009EE0215080409040E1F700C000006091F7
:10020000600080919E000E94E30280E20E94D5027D
:10021000809160008F5F80936000823109F0F4C0AC
:1002200090919E008091A100981709F161E086E10C
:100230000E94C3042FEF85EA9EE021508040904049
:10024000E1F700C0000060E086E10E94C3048091F5
:10025000A0008F5F8093A00063E083E00E94E30230
:100260006091A00070E080E090E00E94F7021092A0
:10027000610008958DE10E944605811116C02FEF9F
:1002800089EF90E0215080409040E1F700C00000ED
:100290008DE10E9446058823D9F380919E008F5FEF
:1002A000833009F482E080939E008BE10E94460532
:1002B000811117C02FEF89EF90E0215080409040CE
:1002C000E1F700C000008BE10E9446058823D9F3C6
:1002D00080919E00815018F080939E0002C0109281
:1002E0009E008FE10E94460581111EC02FEF89EF0D
:1002F00090E0215080409040E1F700C000008FE185
:100300000E9446058823D9F360E08091A2000E94F4
:10031000E30280E20E94D5028091A2008F5F8330C9
:1003200009F482E08093A2008EE10E9446058111CB
:100330001FC02FEF89EF90E0215080409040E1F7FF
:1003400000C000008EE10E9446058823D9F360E0DA
:100350008091A2000E94E30280E20E94D502809177
:10036000A200815018F08093A20002C01092A20057
:100370006091600080919E000E94E30280E30E94F1
:10038000D5022FEF85EA9EE0215080409040E1F7B2
:1003900000C000006091600080919E000E94E30216
:1003A00080E20E94D50280916000815080936000BD
:1003B000813051F590919E008091A200981709F12B
:1003C00061E086E10E94C3042FEF85EA9EE02150A0
:1003D00080409040E1F700C0000060E086E10E94AC
:1003E000C30480919F008F5F80939F0061E183E051
:1003F0000E94E30260919F0070E080E090E00E9424
:10040000F70281E0809361000895CF93C82F60E0E8
:1004100083E00E94C304C4FB662760F988E00E9461
:10042000C304C5FB662760F989E00E94C304C6FBCC
:10043000662760F98AE00E94C3046C2F661F662756
:10044000661F8CE00E94C30461E082E00E94C30446
:100450008FE99FE00197F1F700C0000060E082E0C3
:100460000E94C3046C2F617088E00E94C304C1FB2A
:10047000662760F989E00E94C304C2FB662760F921
:100480008AE00E94C304C3FB662760F98CE00E94E7
:10049000C30461E082E00E94C3048FE99FE00197FA
:1004A000F1F700C0000060E082E0CF910C94C3043B
:1004B000CF93C82F61E083E00E94C304C4FB66278A
:1004C00060F988E00E94C304C5FB662760F989E0F3
:1004D0000E94C304C6FB662760F98AE00E94C30439
:1004E0006C2F661F6627661F8CE00E94C30461E0C4
:1004F00082E00E94C3048FE99FE00197F1F700C0FA
:10050000000060E082E00E94C3046C2F617088E00C
:100510000E94C304C1FB662760F989E00E94C304FE
:10052000C2FB662760F98AE00E94C304C3FB66270A
:1005300060F98CE00E94C30461E082E00E94C30481
:100540008FE99FE00197F1F700C0000060E082E0D2
:10055000CF910C94C3042FEF80E792E021508040AC
:100560009040E1F700C0000082E00E94050288E2AE
:100570000E9405028FE99FE00197F1F700C000009B
:100580008CE00E9405028FE99FE00197F1F700C01F
:10059000000081E00E9405028FE39FE10197F1F7DF
:1005A00000C0000086E00C9405020C945802CF9322
:1005B000DF93EC018991882319F00E945802FACF49
:1005C000DF91CF910895982F862F911102C0805806
:1005D0000BC0913011F4805407C0923011F48C5646
:1005E00003C0933019F48C520C94050208954F9275
:1005F0005F926F927F92AF92BF92CF92DF92EF9213
:10060000FF921F93CF93DF93CDB7DEB7A0970FB6BE
:10061000F894DEBF0FBECDBF6B017C0197FF12C007
:100620008DE20E945802F094E094D094C094C11CD2
:10063000D11CE11CF11C80E02AE0422E512C612CDF
:10064000712C09C0672B682B692BA9F780E30E94E6
:10065000580210E01CC011E0180FAA24A394B12C7A
:10066000AC0EBD1EA80EB11C87FDBA94C701B60121
:10067000A30192010E940006605DF501608369019B
:100680007A01812FC114D104E104F10421F7E1E0E2
:10069000F0E0EC0FFD1FE10FF11D17FDFA95108240
:1006A000FF24FA94F10EF7FC0DC0E1E0F0E0EC0F4E
:1006B000FD1FEF0DF11DF7FCFA9580810E94580295
:1006C000FA94F1CFA0960FB6F894DEBF0FBECDBF5F
:1006D000DF91CF911F91FF90EF90DF90CF90BF906F
:1006E000AF907F906F905F904F9008950F931F93FE
:1006F000CF93DF938B01880F880F880F805C0E9457
:100700000502E801085F1F4F89910E945802C01737
:10071000D107D1F780E8DF91CF911F910F910C9411
:1007200005020E9449000E945A00FDCF1F920F92BD
:100730000FB60F9211242F933F934F935F936F93B4
:100740007F938F939F93AF93BF93EF93FF93E0912A
:10075000A300F091A400309709F00995FF91EF9163
:10076000BF91AF919F918F917F916F915F914F91C9
:100770003F912F910F900FBE0F901F901895982FBB
:100780009695969596958770613009F49AC008F40D
:100790004BC0623009F0E3C09130B1F028F09230E4
:1007A00019F1933089F108954AB321E030E0B9019D
:1007B00002C0660F771F8A95E2F7CB01942F982B22
:1007C0009ABB9BB3809547C047B321E030E0B901A5
:1007D00002C0660F771F8A95E2F7CB01942F982B02
:1007E00097BB98B3809549C044B321E030E0B9018C
:1007F00002C0660F771F8A95E2F7CB01942F982BE2
:1008000094BB95B380954AC041B321E030E0B90173
:1008100002C0660F771F8A95E2F7CB01942F982BC1
:1008200091BB92B380954BC09130C1F028F09230CB
:1008300031F19330A9F108954AB321E030E0B901D4
:1008400002C0660F771F8A95E2F7CB018095942F3F
:1008500098239ABB9BB389238BBB089547B321E0B0
:1008600030E0B90102C0660F771F8A95E2F7CB012D
:100870008095942F982397BB98B389234BC044B39A
:1008800021E030E0B90102C0660F771F8A95E2F7D8
:10089000CB018095942F982394BB95B389234CC0AA
:1008A00041B321E030E0B90102C0660F771F8A959D
:1008B000E2F7CB018095942F982391BB92B38923C3
:1008C0004DC09130B9F028F0923031F19330B1F150
:1008D00008954AB321E030E0B90102C0660F771FE6
:1008E0008A95E2F7CB01962F909594239ABB9BB300
:1008F000892BB2CF47B321E030E0B90102C0660FC7
:10090000771F8A95E2F7CB01962F9095942397BB9A
:1009100098B3892B88BB089544B321E030E0B90136
:1009200002C0660F771F8A95E2F7CB01962F90954C
:10093000942394BB95B3892B85BB089541B321E0E3
:1009400030E0B90102C0660F771F8A95E2F7CB014C
:10095000962F9095942391BB92B3892B82BB0895D7
:100960000F931F93CF930AE610E0C0E0F801619166
:100970008F018C2F0E94BF03CF5FC032B9F7CF9198
:100980001F910F910895982F96959695969587703B
:10099000662319F06130F1F10895913099F028F053
:1009A0009230E9F0933041F108954BB321E030E00B
:1009B000B90102C0660F771F8A95E2F7CB018095D7
:1009C00084233BC048B321E030E0B90102C0660F88
:1009D000771F8A95E2F7CB01809584233BC045B30E
:1009E00021E030E0B90102C0660F771F8A95E2F777
:1009F000CB01809584233BC042B321E030E0B901B4
:100A000002C0660F771F8A95E2F7CB018095842399
:100A100082BB0895913099F028F09230E9F093303C
:100A200041F108954BB321E030E0B90102C0660FF7
:100A3000771F8A95E2F7CB01842B8BBB089548B3CF
:100A400021E030E0B90102C0660F771F8A95E2F716
:100A5000CB01842B88BB089545B321E030E0B90178
:100A600002C0660F771F8A95E2F7CB01842B85BB06
:100A7000089542B321E030E0B90102C0660F771F4C
:100A80008A95E2F7CB01842B82BB0895282F27702B
:100A9000869586958695813049F030F0823041F018
:100AA000833079F480B305C089B303C086B301C035
:100AB00083B390E002C0959587952A95E2F7982F29
:100AC0009170892F08951F920F920FB60F921124E3
:100AD0002F933F934F935F936F937F938F939F9346
:100AE000AF93BF93EF93FF93E091A900F091AA0019
:100AF000309709F00995FF91EF91BF91AF919F91C8
:100B00008F917F916F915F914F913F912F910F90B6
:100B10000FBE0F901F9018951F920F920FB60F9255
:100B200011242F933F934F935F936F937F938F93F2
:100B30009F93AF93BF93EF93FF93E091A700F09142
:100B4000A800309709F00995FF91EF91BF91AF91FF
:100B50009F918F917F916F915F914F913F912F91D5
:100B60000F900FBE0F901F9018951F920F920FB607
:100B70000F9211242F933F934F935F936F937F9323
:100B80008F939F93AF93BF93EF93FF93E091A50053
:100B9000F091A600309709F00995FF91EF91BF9170
:100BA000AF919F918F917F916F915F914F913F9105
:100BB0002F910F900FBE0F901F901895A1E21A2E43
:100BC000AA1BBB1BFD010DC0AA1FBB1FEE1FFF1FF1
:100BD000A217B307E407F50720F0A21BB30BE40B41
:100BE000F50B661F771F881F991F1A9469F7609588
:100BF0007095809590959B01AC01BD01CF01089542
:100C0000052E97FB1EF400940E94170657FD07D08F
:100C10000E94DE0507FC03D04EF40C941706509595
:100C20004095309521953F4F4F4F5F4F08959095D8
:100C30008095709561957F4F8F4F9F4F0895F894E1
:020C4000FFCFE4
:100C42000101040A040E15040A0A0000020202024B
:100C52000202020202020202020201020202020273
:100C62000202020201010201010170313A30202028
:0E0C7200202020202020202070323A30000068
:00000001FF
